:020000040800F2
:10000000C054022085020008DF0902088DF60108AD
:10001000DD09020891A10108772B02080000000009
:10002000000000000000000000000000C501000802
:10003000CDA401080000000021020008710D020893
:100040009F0200089F0200089F0200089F0200080C
:100050009F0200089F0200089F0200089F020008FC
:100060009F0200089F0200089F0200089F020008EC
:100070009F0200089F0200089F0200089F020008DC
:100080009F0200089F0200089F0200089F020008CC
:100090009F0200089F0200089F0200089F020008BC
:1000A0009F0200089F0200089F0200089F020008AC
:1000B0009F0200089F0200089F0200089F0200089C
:1000C0009F0200089F0200089F0200089F0200088C
:1000D0009F0200089F0200089F0200089F0200087C
:1000E0009F0200089F0200089F0200089F0200086C
:1000F0009F0200089F0200089F0200089F0200085C
:100100009F0200089F0200089F0200089F0200084B
:100110009F0200089F020008910E02089F0200083B
:100120009F0200089F0200089F0200089F0200082B
:100130009F0200089F0200089F0200089F0200081B
:100140009F0200089F0200089F0200089F0200080B
:100150009F0200089F0200089F0200089F020008FB
:100160009F0200089F0200089F0200089F020008EB
:100170009F020008E10902089F0200080000000039
:100180009F0200089F0200089F0200089F020008CB
:100190009F0200089F0200089F0200089F020008BB
:1001A000310202089F020008C9A30108DFF810D03D
:1001B00000F0AEFB00480047773D0208AFF3008037
:1001C000C05402202C4B19680868B0E8F04F80F347
:1001D0000988BFF36F8F4FF0000080F311887047DC
:1001E0000000000008480068006880F308884FF0AD
:1001F000000080F3148862B661B6BFF34F8FBFF37F
:100200006F8F00DF00BF00BF08ED00E0DFF80C00DB
:10021000016841F470010160704700BF88ED00E0A3
:10022000EFF30980BFF36F8F134B1A681EF0100FA6
:1002300008BF20ED108A20E9F04F106009B44FF09C
:10024000500080F31188BFF34F8FBFF36F8F24F0FE
:1002500005FE4FF0000080F3118809BC196808689A
:10026000B0E8F04F1EF0100F08BFB0EC108A80F31A
:100270000988BFF36F8F7047B0000020EFF305804F
:10028000704700000648804706480047FEE7FEE743
:10029000FEE7FEE7FEE7FEE7FEE7FEE7FEE7FEE736
:1002A0003D0E0208AD0100082DE9F05F0546002073
:1002B00092469B4688460646814640241BE02846D7
:1002C00041464746224600F0BFF953465A46C01AF7
:1002D000914110D311461846224600F0A6F92D1A76
:1002E00067EB01084F4622460120002100F09DF9EE
:1002F00017EB00094E41201EA4F10104DFDC484643
:1003000031462A464346BDE8F09F10B5441A0346DD
:10031000944209D28418114403E011F8013D04F815
:10032000013D521EF9D210BD40EA0104A40703D0DA
:1003300009E010C9121F10C3042AFAD203E011F811
:10034000014B03F8014B521EF9D210BDD2B201E0AD
:1003500000F8012B491EFBD270470022F6E710B5CA
:1003600013460A4604461946FFF7F0FF204610BD23
:10037000421C10F8011B0029FBD1801A704730B5D0
:1003800004460020034600E05B1C934203D2E05C7D
:10039000CD5C401BF8D030BD034611F8012B00F8AE
:1003A000012B002AF9D1184670472DE9FE4F81EA4A
:1003B000030404F0004421F0004100944FF0000BCE
:1003C00023F0004350EA01045ED052EA03045BD0FC
:1003D000C3F30A54C1F30A552C44A4F2F334019434
:1003E000A0FB0254C1F3130141F48011C3F31303C2
:1003F00043F4801301FB024400FB034E840A970A76
:1004000044EA815447EA8357A4FB076802958D0AA2
:1004100005FB07854FEA932C04FB0C542705029D2E
:100420004FEA065847EA1637B5EB08056EEB070C9E
:10043000870E920E47EA811742EA8312A7FB020158
:10044000B6EB0B0164EB00042B0D43EA0C335E1892
:1004500044EB1C50DA465146E7FB0201C5F3130496
:100460004FEA0B3343EA14534FEA0432019C43EA48
:100470000603A4F10C040294009CCDE900B400F042
:1004800039F903B0BDE8F08F00200146F9E72DE906
:10049000F04D81EA030404F0004B21F000451446BE
:1004A0004FF0000A23F0004150EA050220D054EA40
:1004B00001021DD0C5F30A570246C5F31303C1F369
:1004C0001300C1F30A5640F4801543F48013A7EBE0
:1004D0000608101BD64608F2FD3873EB050002D360
:1004E00008F1010801E092185B41B8F1000F03DA4E
:1004F00000200146BDE8F08D00204FF48011064633
:1005000084460EE0171B73EB050705D3121B63EB44
:10051000050306434CEA010C49084FEA30009218E3
:100520005B4150EA0107EDD152EA030012D082EAA2
:10053000040083EA0501084305D0101BAB4106D235
:100540000122002306E000224FF0004302E06FF09A
:10055000010253101AEB06004CEB085110EB0A0095
:1005600041EB0B01BDE8F04D00F0B5B80EB5C10F81
:1005700080EAE0700844CA07002140F233438DE866
:100580000E000A460B4600F0B5F803B000BD70B58A
:10059000C1F30A5201F000450024C1F3130140F2F7
:1005A000FF3341F480119A4201DA002070BD40F21D
:1005B00033439A42A2F2334203DC524200F044F841
:1005C00000E090402C43F1D0404270BD00F000426A
:1005D00030F000400AD0C10D01F56071C0F3160083
:1005E00042EA0151C208400711437047002001460A
:1005F000704701F0004330B421F0004150EA01029D
:1006000006D00A0DA2F56072C1F31301002A02DCC4
:1006100030BC00207047440F44EAC104C100E01818
:1006200030BC00EBC25000F01FB8202A04DB203A97
:1006300000FA02F1002070479140C2F1200320FA35
:1006400003F3194390407047202A04DB203A21FA33
:1006500002F00021704721FA02F3D040C2F12002DB
:1006600091400843194670470029A8BF7047401CB5
:10067000490008BF20F00100704710B4B0FA80FCB8
:1006800000FA0CF050EA010404BF10BC704749B1F5
:10069000CCF1200421FA04F411FA0CF118BF012165
:1006A00021430843A3EB0C01CB1D4FEA00614FEA45
:1006B000102042BF002010BC704700EBC350104414
:1006C0000029A4BF10BC7047401C490008BF20F09F
:1006D000010010BC704710B5141E73F1000408DA55
:1006E000401C41F1000192185B411A4301D120F0F6
:1006F000010010BD2DE9F04D92469B4611B1B1FAB3
:1007000081F202E0B0FA80F220329046FFF78DFFCE
:1007100004460F4640EA0A0041EA0B0153465A4696
:10072000084313D0114653EA010019D0C8F1400222
:100730005046FFF789FF05460E4650465946424649
:10074000FFF773FF084305D0012004E02046394637
:10075000BDE8F08D0020054346EAE0762C433743A0
:100760000A986305E40AA0EB08000022FD0A44EAA7
:1007700047540A3002D500200146E9E70105101967
:100780006941DDE9084500196941BDE8F04DA2E77E
:100790002DE9FE4F804681EA0300C00F0C46009011
:1007A00021F0004123F00045B8EB0200A94105D239
:1007B0004046214690461C460B46024623F0004028
:1007C000104347D0270DC7F30A00C3F30A51029024
:1007D000401A019040286BDAC3F3130040F4801BE9
:1007E0000098924620B10023D2EB030A63EB0B0B77
:1007F00001985946C0F140025046FFF716FF0646E1
:100800000D4650465946019A00F094F810EB080046
:100810006141002487EA115284EAE7731A4340D009
:10082000009A62B3019A012A4FEA075215DC001BB5
:1008300061EB02014FF0004202EA0752CDE90042AB
:10084000001C41F5801132462B46FFF753FF03B0E1
:10085000BDE8F08F40462146F9E7001B61EB02013D
:10086000001C41F5801300185B412018A2F5001709
:1008700047EB030140EAD570B6196D4111E06D08F0
:100880004FEA360645EAC0754FEA0752001B61EB96
:100890000201001C41F5801149084FEA300000199F
:1008A000514132462B4603B0BDE8F04FFFF713BF6E
:1008B0000098012240000023D0EB020263EBE073BA
:1008C000009821464FEAE074B8EB000061EB0401A8
:1008D000E9E783F000435BE781F0004158E700005F
:1008E00030B5041E71F1000404DB4FF000444042B7
:1008F00064EB0101141E73F1000405DB1C464FF08C
:100900000043524263EB0403994208BF904230BD5A
:10091000064C074D06E0E06840F0010394E807004C
:1009200098471034AC42F6D3FFF744FCB4C5020834
:10093000D4C50208202A06DBCB17203A41FA02F080
:1009400043EAE07306E041FA02F3D040C2F120022C
:1009500091400843194670470EB540F23341029169
:100960000021CDE900110A460B46FFF7C3FE03B094
:1009700000BD70B58C1810F8015B15F0070301D1AC
:1009800010F8013B2A1106D110F8012B03E010F8F2
:10099000016B01F8016B5B1EF9D12B0705D4002315
:1009A000521E0DD401F8013BFAE710F8013BCB1AB7
:1009B000921C03E013F8015B01F8015B521EF9D5AC
:1009C000A142D8D3002070BD2DE9F047466886B01B
:1009D0000546304602F074FEC36D0090D0F88840A2
:1009E000D0F88070D0F86880B0F87C90002B63D08D
:1009F000D3F800A0684602F0B3FF14B909E02468F8
:100A00003CB16368284698470028F8D006B0BDE896
:100A1000F0872B68172B00F0A4801DDC0F2B00F053
:100A20008C807CDC0B2B00F0BE800D2B0AD119F0E2
:100A3000080F07D1EB68DB6823B11B7A13B130468E
:100A40000EF0A2F9304629460BF0A2FD0028DDD0B9
:100A500028460CF07FF9D9E7262B74D02EDC1E2B0C
:100A600000F0AD80202BEDD1EC68002CEAD03146AF
:100A700060680FF0CBFA002800F0BE80304602F02C
:100A80001FFEB0F87C300190190740F12A8101A8BF
:100A900002F066FF314660680FF0A6FA0028D1D058
:100AA000304602F00DFE03466268019001A8C3F8CB
:100AB000802002F055FFC5E79A469BE72A2B65D0B8
:100AC000B3F5107FBED13046D5F80C8002F0F8FDAA
:100AD00006ACB0F87C7044F8140D204602F040FFDC
:100AE000EB68002B92D098F80830002B00F0A9801A
:100AF000390740F1B58030460BF096FF07F4887354
:100B0000B3F5887F82D107F080039BB2002B7FF47E
:100B10007DAF4146304605220EF0DAF876E7112B1C
:100B200022D0142B8ED1304601A900F087FB02ABF6
:100B300003CBEB681860596068E7BAF1000F81D009
:100B40003046D0477EE7EB68022B7FF45FAF06A903
:100B5000272241F8142DA868039604930FF086FB12
:100B600054E7C5F80C8051E73046EC6802F0A8FD68
:100B700001902389012B05D1B0F87C3043F48073B8
:100B8000A0F87C3001A802F0EBFE5BE7304602F0F3
:100B900097FDEB680090002B66D0C0F88430684663
:100BA00002F0DEFE32E7304602F08AFD0346703086
:100BB000009302F099FB684602F0D2FE42E7EC682F
:100BC000012C55D0002E3FF421AF04F09BFF30469E
:100BD00002F076FDB0F87C3001901C0706D523F0BA
:100BE0000803A0F87C3030460DF01EFB01A802F08F
:100BF000B7FE07F00BFC09E7304602F061FDB0F8E4
:100C00007C3001901A0706D523F00803A0F87C3049
:100C100030460DF009FB01A802F0A2FE3146206823
:100C20000FF0E2F900283FF40DAF304602F048FD26
:100C300003462268019001A8C3F8802002F090FECC
:100C400000E7304602F03CFDB0F87C2001900346FE
:100C500022F480722046A3F87C2002F081FED5E6C3
:100C600030460EF091F846E7D0F88430EB6096E716
:100C700038460DF0F9FD18B338460EF085F83846C1
:100C80000DF080F9A8B926B9002F7FF4BFAEEF6050
:100C9000BCE604F037FF304602F012FDB0F87C30BD
:100CA00001901A0725D501A802F05AFE07F0AEFB05
:100CB000EAE7214638460BF057FD002EE4D0E8E77E
:100CC00040460EF0CDF80746304602F0F9FC0346E8
:100CD0006846C3F88070009302F042FE002ED3D025
:100CE000D7E743F00803A0F87C3030460DF09CFABB
:100CF000CDE643F00803A0F87C3030460DF094FABE
:100D0000D1E700BF2DE9F04F0F46B0F90C10B0F954
:100D10000AB08569B0F90E60B0F910A0B0F8128081
:100D20004D4C8FB001EB0309B0F9083004934368D0
:100D300005939344603504F0E5FE4FF4805E32463F
:100D4000009749465846039553460294CDF804E06F
:100D50000BF002FF064628B907F058FB30460FB0EB
:100D6000BDE8F08F02F0ACFCDFF8F4A00499069027
:100D7000302255460BF0CAFD0DF1380B0FCD5BF854
:100D8000207D07F134040FC40FCD0FC495E8030094
:100D9000189B84E8030000257B66DAF82830FB65A1
:100DA000C7F88050FD66C7F88850A7F87C80584681
:100DB00002F0D6FD09A9304600F040FABDF92A102C
:100DC000BDF92800BDF92C20BDF92E30234C039528
:100DD0005B1A121A41F282750132013302940096B5
:100DE00001950BF0B9FEDAF8283004465B6830460E
:100DF0009847304602F064FC034658469C660693CA
:100E000002F0AEFD30460CF011F904F07BFE3046E6
:100E100002F056FC036F079007A8089302F0A0FDAC
:100E2000059908A808F00CFC38B907F0EFFA07F0AC
:100E3000EDFA30460FB0BDE8F08F304602F040FCCE
:100E4000089A0267034607A8079302F089FD304617
:100E50000DF0EAF9E9E700BFC909000865140008C8
:100E6000640100202DE9F041044690B0006800F0D4
:100E7000CDF9B04B6668A3F12C05002808BF1D46CC
:100E80001C2E00F2F880DFE816F02200F600F600D3
:100E9000F600F6003500F600F600F600F600F60063
:100EA0005100F600F600FB00F600F600F6000F0118
:100EB000F600F60049014B014D014F01F600F60026
:100EC000F6001D006E69304610B0BDE8F081206864
:100ED00002F0F6FB10ABB0F85A2043F82C0D42F0AC
:100EE0000C02A0F85A20184602F03AFD20680EF0D5
:100EF00037F8E8E72B690193B4F910E0B4F91470FE
:100F0000B4F91860B4F91C40EB680093324670469F
:100F100039462346ADF82060ADF81CE0ADF81E70F0
:100F2000ADF82240002603F0ADFECCE71C2320687C
:100F30000893079002F0C4FB036D059007A898473B
:100F4000064605A802F00CFD012E40F32681AB6891
:100F500002936B6801932B686269A1692069009311
:100F6000334607F0FDFE2769A3693744C6EB030843
:100F7000286806F051FE42463946606904F0B0F830
:100F8000686806F049FE606942460130394604F05F
:100F9000A7F86B6A022B00F3F3802A6A964218DAEC
:100FA00063692069012E03F1020740F324810244A2
:100FB00006EB0308013A30444346394604F0FEFA92
:100FC000A069821BEB69C01A39464346013004F020
:100FD000F5FA012ED4BF66696369E7692868CCBF5A
:100FE000F6180236013F06F017FE3A4631462069F0
:100FF00004F08CFA3A463146A06904F087FAE769B2
:10100000686806F009FE2069023F3A460130314621
:1010100004F07CFAA0693A460138314604F076FAC9
:10102000EB69022B40F38280AB6AE769A868022B68
:10103000CCBFFF1A023F06F0EFFDEA69022A00F377
:1010400096802B6A022B00F38880286806F0E4FD66
:10105000A2692169E06904F043F8686806F0DCFDE4
:10106000A2692169E069013A0131013804F038F8D8
:10107000AE6A022E60DC0026304610B0BDE8F0817A
:1010800004F114010EC9A8682569ADF81E10ADF869
:101090002020ADF82230ADF81C5006F0BDFD07A8A9
:1010A00004F0B8FA00260EE7298B2269A369666965
:1010B000E5692068ADF81E605B1A0A44ADF820307F
:1010C000ADF81C20ADF8225002F0FAFA036F05903B
:1010D000FBB1022006F048FE059AB2F87C30C3F35B
:1010E000C0030E3302EB8303986806F095FD059B61
:1010F000586B06F0A9FD059B186F02F0E1FA059BFD
:101100000690B3F95A2007A903F0E0FB06A802F005
:1011100027FC05A802F024FC0026D4E6AE6AD2E63D
:10112000EE69D0E62E6ACEE66E6ACCE62B6A022B1A
:101130008BDD79E7AC020020A269E7692169A86824
:101140008C1C951E06F068FDB91B2A46204601310D
:10115000BB1E04F033FA0026B5E6A269E869101A4E
:101160003B4631460130023A04F028FA6DE7206927
:101170000244013A02303B46314604F01FFA60E770
:10118000A86806F049FD61696B6A0B44424638461F
:10119000013B023104F012FA1BE7286806F03CFD1F
:1011A0002169EA6960690A44013A03F099FFA2697A
:1011B000E9696069511A013103F092FF676920699A
:1011C0000137394604F030F93946A06904F02CF9AA
:1011D000686806F021FD20693946013004F024F9E1
:1011E000A0693946013804F01FF92769A36902375D
:1011F000A3F10208BCE60244013A02303B463946FC
:1012000004F0DCF9A069B846821EDBE610B504469E
:1012100082B080B104F076FC204602F051FA02ABB5
:10122000B0F87C4043F8040D1846C4F3C00402F043
:1012300097FB07F0EBF8204602B010BD2DE9F04F08
:1012400089B007460D4602F03BFAC36D05909C68D5
:101250000121236838469847236803218046384691
:10126000984723680221834638469847236800211F
:10127000824638469847814605980EF0D3FA0646CE
:1012800005980EF0D7FA03460598448E04F0200422
:10129000A4B2B4B1B0F95420B0F95840002A4ED0ED
:1012A00091B2C06E0C44A4B280B10391029201933A
:1012B0000CF0A2FB019B029A03990FFA80FE80B208
:1012C00005E021462246C06E0028EED186461FFA70
:1012D00089FC013ECBEB060B6444013B0CF1FF3C67
:1012E0008C44CAEB03030FFA8BFB0FFA88F8044413
:1012F0006B812A80A5F802E0A5F812C0A5F808B015
:10130000A5F810B0A5F80480A5F80C80A5F80E90FB
:10131000EC8005A802F024FB08AAB5F9103042F8C9
:10132000043D3846B5F90C30069306A900F04CF898
:10133000069A079BAA812B8209B0BDE8F08F406B0B
:10134000019304F03BFB023081B20C4402B2A4B220
:101350000598019BB7E700BF08B5438E03F0200353
:101360009BB24BB10246B0F9540000B108BD506BBE
:1013700004F024FB023008BD184608BD70B58AB0E1
:101380000C46064602F09CF90AABC26D43F8280DE4
:101390001846956802F0E4FA0196032C05D8DFE8B8
:1013A00004F00F0C0902172302936B6801A89847F9
:1013B0000AB070BD15230293F7E716230293F4E7F2
:1013C00018230293F1E700BF2DE9F04383B088466C
:1013D0000446914602F074F9034602A8DA6D40F81B
:1013E000083D9568B3F90070B3F9026002F0B8FAED
:1013F0002B68204600219847054620460CF03CF813
:1014000060B3044607E001A802F0AAFA20460CF0F7
:101410009DF9044610B3204602F052F9B0F90230AB
:1014200001909B1B9D42EED1836A1B060BD5B0F940
:101430000030D9F80020DB1B934203F1FF33E2DCDC
:10144000C9F80030DFE7B0F90430D8F80020DB1B22
:101450009342A4BF0133C8F80030D4E703B0BDE81D
:10146000F08300BF2DE9F043456887B00446284665
:101470000CF09EF9074602F023F9034606A85E6EBB
:1014800040F8143DD3F84880D3F8809002F068FA11
:1014900023680E3B232B3FD8DFE803F035463E3E62
:1014A0003E3E12123E123E3E3E3E3E3E18243E3E20
:1014B0002B3E3E3E3E3E3E3E3E3E3E3E3E3E3E306D
:1014C00020460BF047FC07B0BDE8F083E368002B33
:1014D000F9D0B9F1000F3BD04D4539D048460DF059
:1014E00053FCF0E7214638460BF052F807B0BDE850
:1014F000F083C4F80C8007B0BDE8F0830023E360FC
:1015000007B0BDE8F083E3685A68002A04DD1B6871
:10151000092B1DD00A2B1FD0002ED1D0676020468A
:10152000B04707B0BDE8F0836FF07043984504D032
:10153000404609F0D9FC02F0EDFC002EC3D094E83F
:101540000F0002AC84E80F0020460395B047BAE7CD
:1015500028460DF085FCB6E728460DF0C9FCB2E739
:101560002DE9F04F161A85B05D1A9E4656EA05031E
:10157000DDF838B078D086EAE67385EAE574A3EB47
:10158000E673A4EBE5749C420746894632DC1C46B0
:10159000A6424FF0000301933AD06D4239464FF016
:1015A000FF33002D1746C6F100040A46F1460393A7
:1015B000DBF8001032D1DFF80883019BD8F800E097
:1015C0000846002B00F0CF809EF81A30002B00F068
:1015D000C181002CC0F2C581B54EAA467246013BBE
:1015E000451C032B00F23281DFE813F04A013F0172
:1015F00056011F013B4630462E4611464F46A64235
:1016000099464FF00103724605468E460193C4D1B8
:101610000123002D0393DBF80010CCD0DFF8A0826B
:10162000D8F8000004EBD476827E4FEA6606B8BF95
:101630007642F2B9002C14DB019B002B00F05181A3
:10164000924601E0D8F80000436E96FBF4F00AEBF6
:1016500007015B6848440AF1010A984754452E4443
:10166000F0DA05B0BDE8F08F05B0BDE8F04F00F04E
:101670007BB95A1C00F02D81002C53DBCDF808906B
:101680004FF0000AC14698464144CBF80010827ED4
:10169000013A032A15D8DFE802F0574B2C02854B9C
:1016A0004FEAE17E83FB0132CEEBA20202EB420263
:1016B000A1EBC2020B2A12DD22F00402103A012A29
:1016C0000DD996FBF4F1029B426E1944019B002B4D
:1016D00040F0F880526838469047DBF800100AF175
:1016E000010A544507F101072E4416DBD9F8000022
:1016F000CAE76F4B4FEAE17E83FB0132CEEBE20299
:1017000002EB8202A1EB82020B2AD7DC0AF1010A6A
:10171000544507F101072E44E8DA039A01324346A3
:1017200000F0DD80CB1ACBF8003005B0BDE8F08FBB
:10173000614A0A40002AC0F2E680012ACCBF00229A
:101740000122002ACBD1BCE75C4A01F1060E0EEA69
:101750000202002AC0F2DC800B2ACCBF0022012248
:10176000002ABCD1ADE79EF81A30002B00F0E980CA
:10177000002CC0F2F680DDF804A04E4E7246013B0C
:10178000451C032B13D8DFE803F04337210286FB07
:101790000031C317C3EBA10303EB4303A0EBC30367
:1017A0000B2B0ADD23F00403103B012B05D9536EEC
:1017B00049465B6807EB0A0098470AF1010A54455D
:1017C00014DBD8F800202846937ED8E7384B83FBFB
:1017D0000031C317C3EBE10303EB8303A0EB8303E7
:1017E0000B2BE1DC0AF1010A5445EADA691ECBF859
:1017F000001005B0BDE8F08F2F4B0340002BC0F266
:101800009680012BCCBF00230123002BD5D1CEE73E
:101810002A4B691D0B40002BC0F28E800B2BCCBFD6
:1018200000230123002BC8D1C1E7224B83FB0031E9
:10183000C317C3EBA10303EB4303A0EBC3030B2BC1
:101840000ADD23F00403103B012B05D9536E0AEB8C
:1018500007015B68484698470AF1010A5445C5DB11
:10186000D8F800202846937EB9E6134B0340002B9E
:1018700053DB012BCCBF00230123002BECD1E5E788
:101880000E4B691D0B40002B4CDB0B2BCCBF0023F8
:101890000123002BE0D1D9E786FB0031C317C3EB4E
:1018A000E10303EB8303A0EB83030B2BCBDCD3E738
:1018B00067666666ABAAAA2A030000800F00008054
:1018C000500100200846526839469047DBF8001066
:1018D00005E72144002CCBF80010BFF6CFAE214421
:1018E00020E79A4601E0D8F80000436E96FBF4F139
:1018F0000AEB07005B6849440AF1010A984754451E
:101900002E44F0DAADE6013A62F00302013214E748
:10191000013A62F00F0201321EE7013B63F003035C
:101920000133A6E7013B63F00F030133ADE7013B51
:1019300063F00303013364E7013B63F00F030133FA
:101940006CE7DEF864301B684946384605B0BDE8F0
:10195000F04F18473946484605B0BDE8F04F08F04B
:1019600039BE0D4642E700BF064B1B681A7E012AAE
:1019700005D0013A02EBD272521000F005B85B6E4E
:101980005B681847500100202DE9F04FDFF8DCB00C
:10199000354EDBF80040154640F2C32202FB05F24B
:1019A000034685B086FB0209606E0293D217C2EB34
:1019B000A919EF18C5EB030805EBD57E05FB05F665
:1019C000046806EB6E0309F101093A4640460193AB
:1019D0008A46A047B9F1000F42DD029A012413198B
:1019E0000293531E0393334616461AE0013DAF1986
:1019F000C5EB0608DBF800305B6E0AEB04013A46E3
:101A00001B6840469847DBF800305B6EC4EB0A0168
:101A10003A461B68404601349847A14520DB05FB48
:101A200005F3019A04FB04339A42E3DAA945DDDAAF
:101A3000029ADBF80030171B039A5B6E02EB040876
:101A4000384642460AEB05011B689847DBF8003030
:101A50005B6E424638461B68C5EB0A019847C5E7EE
:101A600005B0BDE8F08F00BFD34D621050010020DB
:101A70002DE9F04F002987B01F4C40F3D58227464F
:101A8000054600EB810E43F6FF74B5F90260B442DF
:101A900005F10405A8BF3446B742B8BF3746AE4586
:101AA000F3D10497154D2D686D696DB1B5F90660D8
:101AB000049FB5F90250F61AED1AB742A8BF37468F
:101AC000AC420497B8BF2C46049DAC4200F38E8113
:101AD000DFF82C800593934606464D1E8A4600206B
:101AE000074B8245186040F37C81059BCDF80CB014
:101AF0002344029319E000BF01C0FFFF5001002002
:101B0000684D0220A6450CD0C0F27381A44500F3B5
:101B10008581F44540F37881A64502DCA44580F236
:101B20008281BA45384640F3EC8006EB8001A8423A
:101B300000F10107ACBF0023BB00B1F902C0334480
:101B4000A4450246B3F902E0DCD1A64500F03E828E
:101B5000002DC8BF0021E4DD5AB1013A06EB820333
:101B60000131B3F90230A3420BD1A942D9D0002AE6
:101B7000F3D12A4606EB82030131B3F90230A342C6
:101B8000F3D01B1BC4EB0E0E93EA0E0F36F9202088
:101B900040F112829F4B1B680B2BC2DC002B40F3E1
:101BA0002B82581E410008EB010CBCF904E0724581
:101BB00000F3318208EB4309A9F804E0002800F0A3
:101BC0001B82981E4FEA400908EB090EBEF904B0CB
:101BD0005A4500F38D80ACF804B0002800F00C8268
:101BE000D81E410008EB010CBCF904C0624500F3AB
:101BF0001482AEF804C0002800F0FE81A3F10409AD
:101C000084484FEA490B00EB0B0EBEF904C0624555
:101C10006EDC4144A1F804C0B9F1000F00F0EC8182
:101C2000581F410008EB010CBCF904904A4500F331
:101C3000E781AEF80490002800F0DE81981F4FEA9B
:101C4000400B08EB0B0EBEF904904A4550DCACF893
:101C50000490002800F0D081D81F410008EB010952
:101C6000B9F904C0624500F3CB81AEF804C0002886
:101C700000F0C281A3F1080C4FEA4C0E08EB0E00F5
:101C8000B0F90400824233DCA9F80400BCF1000F73
:101C900000F0B281A3F10900410001905D4800EB22
:101CA0000109B9F904B05A4500F3BB81C644019853
:101CB000AEF804B0002800F09F81A3F10A004FEABB
:101CC000400C08EB0C0EBEF904B05A4510DCA9F824
:101CD00004B0002800F09081A3F10B01490008EB4B
:101CE0000100B0F90400824200F39981AEF80400CB
:101CF000484801440133BA4503608A8038463FF7BB
:101D000014AF444BDDF80CB01B68002B69DD012BD0
:101D1000B8F9040065D0404BB8F906201B68029F53
:101D20005B6E58441B685A4439469847D8F80030CF
:101D3000022B56DD032BB8F9080052D0364BB8F908
:101D40000A201B685B6E58441B685A443946984702
:101D5000D8F80030042B44DD052BB8F90C0040D036
:101D60002D4BB8F90E201B685B6E58441B685A4413
:101D700039469847D8F80030062B32DD072BB8F9E2
:101D800010002ED0244BB8F912201B685B6E58440B
:101D90001B685A4439469847D8F80030082B20DD94
:101DA0001C4A092BB2F914001BD01B4BB8F91620A2
:101DB0001B685B6E58441B685A4439469847D8F8EC
:101DC00000300A2B0DDD0B2BB8F9180009D0124B8F
:101DD000B8F91A201B685B6E394658441B685A4490
:101DE0009847049B0134A342BFF679AE07B0BDE823
:101DF000F08FA445FFF695AEF44514DCA4453FF7FB
:101E000090AEA645FFF68DAE36F92020B3F900302E
:101E100010E000BF684D022050010020A6453FF7AA
:101E200080AEF445EADD6146B3F9002036F9203092
:101E3000F4468E46991ACCEB040303FB01F3002B06
:101E4000CCEB0E0EDBBF4FEA6E0101F1FF3103EB6D
:101E50006E01591A764B1B680B2B3FF762AE91FB54
:101E6000FEF1002B0A44019240F3C480581E114633
:101E7000420008EB020EBEF904C0614500F3C280C7
:101E800008EB4309A9F804C0002800F0B380981EAD
:101E90004FEA400B08EB0B0CBCF90490494500F3EA
:101EA0008380AEF80490002800F0A480D81E420081
:101EB00008EB0209B9F904E0714500F39F80ACF822
:101EC00004E0002800F09680A3F1040C4FEA4C0EC9
:101ED00008EB0E00B0F90400814265DCA9F80400AB
:101EE000BCF1000F00F086805149581F420001EB01
:101EF00002090199B9F904B0594500F38780C64435
:101F0000AEF804B0002875D0981F4FEA400B08EBDC
:101F10000B0EBEF904C0614546DCA9F804C00028D8
:101F200068D0D81F420008EB020CBCF90490494568
:101F300064DCAEF8049000285CD0A3F108004FEAFE
:101F4000400908EB090EBEF904B059452CDCACF889
:101F500004B000284ED0A3F10900420008EB020CA7
:101F6000BCF904C0614554DCAEF804C0002841D07F
:101F70002F49A3F10A004FEA400C01EB0C0E019926
:101F8000BEF9049049450FDC4244A2F804900028B1
:101F900030D0A3F10B00420008EB0200B0F90400BE
:101FA000814231DCAEF804002148BDF8041002443F
:101FB000013391800360B4E51E4B03991B685B6E8F
:101FC0000A441B68029910469847AAE536F9201082
:101FD000B3F900300398014402461818154B1B68EA
:101FE0005B6E8142B6BF02460A4608461B680299EC
:101FF000984796E50022D7E7002179E65A46D3E7CD
:10200000594675E65A00CFE76246CDE74FEA4C02E3
:10201000CAE74A46C8E759006AE6494668E66146A3
:1020200066E64FEA4C0163E6049443F6FF7439E533
:10203000684D02205001002038B5204B204C1D680F
:1020400003F060FD284608F04FFF06F0DFF91D4B56
:102050001D6803F057FD284608F080FF06F0D6F90A
:1020600003F050FD236801221A7606F0CFF903F041
:1020700049FD236800259D8506F0C8F903F042FD5F
:1020800023685D8506F0C2F903F03CFD284608F0A0
:1020900097FF06F0BBF90C4B1D6803F033FD236876
:1020A00005B1DD6106F0B2F903F02CFD23680022D2
:1020B0009A76BDE8384006F0A9B900BF4C0100206F
:1020C00050010020480100204401002030B585B0B7
:1020D000019108B3044603F015FD204601F0F0FA23
:1020E00004AB456E43F8040D184601F039FC019825
:1020F00001F0E6FA04AB846043F8080D184601F0DD
:102100002FFC04220DEB0201284601F04DFC204675
:102110000CF08AF806F07AF905B030BD30B585B01C
:10212000019108B3044603F0EDFC204601F0C8FA23
:1021300004AB856E43F8040D184601F011FC0198BC
:1021400001F0BEFA04AB846043F8080D184601F0B4
:1021500007FC04220DEB0201284601F025FC204675
:102160000CF062F806F052F905B030BD2DE9F04FE1
:1021700090E81800B3F5407F99B0054600F02C8137
:10218000014620460AF004FA0646002E00F0F180CF
:102190002B68053B212B00F21981DFE813F02601A3
:1021A000170117011701170117012D011701170159
:1021B0001701220017011701170117011701170155
:1021C000170117011701170117011701170117014F
:1021D000170117011701170117011701170117013F
:1021E000ED002046ED6801F06BFAC26A0F900346DD
:1021F00012689F6D596D049210A8DA6D1B6E0592DE
:102200000393019102970BF089F810A90F980AF037
:10221000F5FA0DF1400E9EE803000DF1500B8BE82E
:102220000300BDF85210BDF81030BDF850200398DF
:10223000BDF85460BDF856E03944059F194418189C
:102240001A443B44F31A019EADF85430C0EB0E0023
:102250003244ADF85020ADF85600ADF852109BE86E
:10226000030012AB83E8030018460CF045FF0F9BF8
:10227000586B05F0C5FC01F04DFE0F9FD7F8943068
:102280001BB10021204698470F9F97F86C30002B18
:1022900040F07181049A10A9584607F073F9584626
:1022A0000CF02AFF0F9E96F83B20002A40F0F580A4
:1022B000D6F8943013B101212046984712A80CF0AB
:1022C0001BFF0F9B586E01F025FC00268046E0B1F5
:1022D0000F9B3146586E01F031FC01F0F1F90136E7
:1022E000169080B10768384601F0EAF9034629469E
:1022F00038460E9323B11B6898470EA801F030FBB7
:1023000016A801F02DFBB045E2D158460CF0F4FEC2
:102310000F9B986E01F0FEFB00268046E0B10F9BFC
:102320003146986E01F00AFC01F0CAF901361690A8
:1023300080B10768384601F0C3F90346294638469C
:102340000D9323B11B6898470DA801F009FB16A84F
:1023500001F006FBB045E2D100200CF0CDFE0F9B52
:10236000D3F8943013B12046022198470FA801F00A
:10237000F7FA19B0BDE8F08FEB68052B26D120469F
:10238000AE680BF0C9FA864205D02046AC680BF067
:1023900093FA84421AD16C68AE68204601F090F935
:1023A0001690304609F0F0FC074630460BF082F8F4
:1023B000169BFE2808BFC3F88070204618BFC3F8DC
:1023C0008C700BF031FF16A801F0CAFA28460AF00B
:1023D000C1FC19B0BDE8F08F014620460AF0D8F8DC
:1023E0000646204614F054FFCFE6204614F050FF76
:1023F00028460AF0AFFCECE7204601F061F91490A2
:10240000406E01F087FB061EC8BF00241BDD149B35
:102410002146586E01F092FB01F052F901341690FA
:1024200078B10568284601F04BF90346129312A8CB
:1024300023B15F6801F094FA2846B84716A801F066
:102440008FFAA642E3D1149B986E01F063FB051E40
:10245000C8BF002411DD149B2146986E01F06EFB6D
:1024600001F02EF90134169028B1006800F012FF37
:1024700016A801F075FAA542EDD1149B18AC586E60
:1024800001F0E4FA54F8103D986E01F0DFFA2046AE
:1024900001F066FA19B0BDE8F08F019B3BB9029BD1
:1024A0002BB9059B1BB9039B002B3FF401AFF26ACC
:1024B00016A92046D2F800800BF01AF80BF054F958
:1024C00004900BF063F90199BDF958A0BDF95A20A9
:1024D000BDF95C90BDF95E308A4402990A440792C6
:1024E000059AC2EB0909039A07469B1AB06B06933B
:1024F00005F086FBF06B05F08FFB019941B14A1E98
:10250000B5F90030049942445B1A9A4280F2EA809D
:10251000029B3BB1B5F90220013BD21B43449342DD
:1025200080F2F480059951B1BDF95C20B5F9043011
:10253000501A049901305E1AB04240F3F880039BB0
:10254000BBB11946BDF95E30B5F90620591A013103
:10255000D71BB9420DDCBDF95C20BDF9580001F074
:1025600017FD069809F101020AF1FF31013002F06E
:10257000B7FD0F9E9CE616A920460AF0B9FFFB6A3C
:10258000386C1B680993BDF95E300793BDF95A306A
:102590000893D7F84490D7F84880BDF95CA0BDF9FE
:1025A000586005F039FB03F0A9F90690B9F1000F66
:1025B0004FD0B7F87820FB6CD20754BFD7F88C20E7
:1025C00000224B441344994503DCC9EB03039945AE
:1025D000FBDD05990A93019B97F87A005A18C6EB20
:1025E0000A0AC2F1010202EB0A010E4605F07EFB67
:1025F0000A9B9E4231462CDD0998019A0A951044A7
:10260000CDF82C801E180994039D8846824606E06A
:1026100002F092FD4E44CAEB0603984516DD029B7C
:10262000BDF95A40BDF95EE097F87AC01C44C5EB8D
:102630000E0E3246304621467346BCF1000FE7D1FC
:1026400072462146304602F061FFE3E709AC94E8A8
:102650003001B8F1000F41D03B6DD7F880604344A2
:102660009E1BB04503DCC8EB0606B045FBDD029AB5
:10267000039B089997F87B00D318079AC3F10103CD
:10268000C1EB0209994405F031FBB14526DD0895FF
:102690000794059DDDF80CA005E0704602F04CFDA6
:1026A0004644B14518DDBDF95E00BDF95C40019AB4
:1026B000BDF958E097F87BC0CAEB0000801B641B93
:1026C0009644034601462246BCF1000FE5D122465E
:1026D000714602F005FDE3E7079C089D069805F0AA
:1026E00005FBD7E50399BDF95E30BDF958005B1ACB
:1026F00002990133414401F04BFC069B5A1C079B95
:102700000AF1FF30591E02F001FF01E7BDF95C201C
:10271000BDF95A10BDF9580001F03AFC079B09F1C8
:1027200001020AF1FF31581E02F0DAFCFAE60399C1
:10273000BDF95E305B1A02990133414401F028FC77
:10274000079B591E069B09F101005A1C02F0DEFE90
:10275000F5E600BF2DE9F04FB0F90A60B0F90C7052
:102760008569B0F90E90B0F910A0B0F81280B0F9F8
:10277000084087B08B4616441F446C3503F0C2F9FD
:10278000DFF878E0CDF800B04FF0000B3046394666
:10279000039553464A46CDF808E0CDF804B00AF058
:1027A000DBF9064610B301F04DF9074601F04AF98E
:1027B0000546304600F084FF85660F4D476621468A
:1027C0005A46059006AF0AF0A1F80FCD57F804ED70
:1027D0000EF134040FC40FCD0FC495E80F0084E848
:1027E0000F00AEF87880384601F0BAF805F00EFE1A
:1027F000304607B0BDE8F08F900100206D21000841
:1028000010B584B00446ADF8061003F07BF92046FD
:1028100000F056FF029070B1406A00F051FF0223B1
:10282000044601460DF106020298039400F0D4F923
:1028300003A801F095F802A801F092F805F0E6FD72
:1028400004B010BD2DE9F04782B007460D46904612
:102850001E4603F057F92C2000F0D2FC044628B99C
:1028600005F0D4FD204602B0BDE8F087680000F016
:10287000C7FC824618B1B8F1000F00D0E6B90DF1DF
:102880000409204600F01CFF1349144ADFF854E005
:102890000190034683E80600C3F824A09F615D61B0
:1028A0001E61C3F80CE0484601F05AF805F0AEFD91
:1028B000204602B0BDE8F08700F002FF0DF10809E4
:1028C000074B49F8040D41461B687200984748467B
:1028D00001F046F8D5E700BF65770108B575010836
:1028E0005C020020857101082DE9F04182B080462C
:1028F0000F4616461D4603F005F9302000F080FC17
:102900000446C0B100F0DCFE02AA0E4942F8040DF4
:10291000034603C99F619E84DD614FF07E5703F13A
:102920000C06094DC3F814809F6286E80300104628
:102930001D6001F015F805F069FD204602B0BDE804
:10294000F08100BFC00100205978010830B52DED9D
:10295000028B83B038B99FED158AB0EE480A03B0F8
:10296000BDEC028B30BD044610EE105A03F0CAF8DD
:10297000204600F0A5FE07EE905A90ED0A8A0190DD
:10298000B4EE678AF1EE10FA0AD101A800F0E8FF70
:1029900005F03CFDB0EE480A03B0BDEC028B30BD43
:1029A000856280680BF040FCEFE700BF000000008C
:1029B00030B5044683B010B9204603B030BD0D4693
:1029C00003F0A0F8204600F07BFE046A0190AC42C0
:1029D00003D0056280680BF027FC01A800F0C0FF5F
:1029E00005F014FD204603B030BD00BF30B50446ED
:1029F00083B010B9204603B030BD0D4603F082F815
:102A0000204600F05DFEC4690190AC4203D0C56170
:102A100080680BF009FC01A800F0A2FF05F0F6FCAD
:102A2000204603B030BD00BF00B97047F0B5044682
:102A300083B00F461D46164603F064F8204600F0AA
:102A40003FFE02AB089A43F8040D026647658665AF
:102A5000C565184600F084FF204614F019FC204696
:102A60000BF0E2FB05F0D2FC03B0F0BD70B582B014
:102A700018B90446204602B070BD064614460D46FD
:102A800003F040F8304600F01BFE032C019009D8FB
:102A900000EB8402546BAC4205D0556330460BF01A
:102AA000C3FB00E0002401A800F05AFF05F0AEFCD3
:102AB000204602B070BD00BF70B582B018B90446A0
:102AC000204602B070BD06460D4603F01BF83046A6
:102AD00000F0F6FDB0F87830019013F0010408D052
:102AE0008DB101A800F03CFF05F090FC204602B03B
:102AF00070BD002DF5D043F00103A0F878303046CA
:102B00000BF092FBEDE723F00103A0F8783030469C
:102B10000BF08AFBE5E700BF70B582B018B9044638
:102B2000204602B070BD06460D4602F0EBFF30466F
:102B300000F0C6FD90F86C400190AC4204D080F8E3
:102B40006C5030460BF070FB01A800F009FF05F057
:102B50005DFC204602B070BD70B582B018B9044665
:102B6000204602B070BD06460D4602F0CBFF30464F
:102B700000F0A6FD90F87B400190A54204D080F8BB
:102B80007B5030460BF050FB01A800F0E9FE05F049
:102B90003DFC204602B070BD70B582B018B9044645
:102BA000204602B070BD06460D4602F0ABFF30462F
:102BB00000F086FD90F87A400190A54204D080F89C
:102BC0007A5030460BF030FB01A800F0C9FE05F04A
:102BD0001DFC204602B070BD2DE9F047846884B02A
:102BE0009CB1044616460069626990421D460B4638
:102BF0000ED0421C226105FB003031462A46FDF70B
:102C000084FBE368A3B12046984704B0BDE8F08791
:102C1000421E05FB02F229441846FDF776FB0346E7
:102C200020690138314605FB00302A46FDF76DFB6F
:102C3000A668304600F044FD034604A8D3F854A02B
:102C400040F80C3DD3F85890D3F85C801F6E00F02C
:102C500087FE304602A90AF04BFCBDF80850BDF8CB
:102C60000A40BDF80C20BDF80E30C8EB0202DB1B99
:102C700002A9304655444C44ADF80850ADF80A401E
:102C8000ADF80C20ADF80E300BF05CFA04B0BDE8E6
:102C9000F08700BF2DE9F04784B0064600F010FD34
:102CA000034604A8D3F854A040F80C3DD3F858903C
:102CB000D3F85C801F6E00F053FE304602A90AF084
:102CC00017FCBDF80850BDF80A40BDF80C20BDF84F
:102CD0000E30C8EB0202DB1B02A9304655444C44BF
:102CE000ADF80850ADF80A40ADF80C20ADF80E3044
:102CF0000BF028FA04B0BDE8F08700BF014B83E871
:102D000003007047704A0220014B83E803007047BC
:102D1000784A0220014B83E803007047804A022072
:102D2000704700BF704700BF2DE9F04F4F4E33682A
:102D3000DA69B3F92250D469B4F80CB083458BB08A
:102D40007DD8E18981427AD3216808914FF0FF3123
:102D5000CBEB000B0791BBF1FF3F6AD0177EB3F9B5
:102D60002A80A27CB3F9249094F810A017FB02F3F8
:102D70004046069308F024F93368069A08990990AA
:102D800002FB0B109A6BDB6904900592A27C039204
:102D90004FF0010BCDF808B0DA7E01929B7E0093D4
:102DA00028463B465246494607F02EFA079801301E
:102DB0001CD048F0020008F003F92C4A079812686A
:102DC0000899069B03FB0013916BD269059104934C
:102DD000A37C0393CDF808B0D37E0193937E009338
:102DE00052463B464946284607F00EFA33681F4FC5
:102DF000DB695A7E1B7E9A4214D9B8F1020F11D0BA
:102E000088F0040008F0DCF83B68DB69187ED97EA6
:102E10009A7E5B7E00FB01910AFB02524B442846DE
:102E200007F002FC9DF8240008F0CAF83368B3F9F3
:102E30002250627C15445D840BB0BDE8F08FA16820
:102E40000029F6D00F88B842F3D3B1F802E08645E6
:102E5000EFD34968C01B80B26768089701EB800711
:102E600031F920B0B7F90210079174E75001002042
:102E7000044B1B68DB69DB6909B11A7C0A60587C6A
:102E8000704700BF5001002002230B80704700BF35
:102E9000C3699A898A4202D8DA898A4211D298682B
:102EA00018B10388994201D20020704742888A42B3
:102EB000FAD3C91A436833F82100C043C0F3C030C5
:102EC00070470120704700BF2DE9F04F3E4D2B6841
:102ED000DA69B3F92A60D36989B043B11A8890429C
:102EE00002D35988814205D29B68002BF6D109B0E4
:102EF000BDE8F08FD3F80480DFF8CC90841A08EB9B
:102F0000C407304697F802B008F05AF8824628689D
:102F100018F83420D0F81CE0D0F838C09EF81830EB
:102F2000B0F92410B0F92200CDF814C006934FF088
:102F3000010C7B680493CDF80CB0CDF808C09EF866
:102F40001BC0CDF804C09EF81AE0069BCDF800E047
:102F500007F05AF92B68DA69537E92F818B05B458E
:102F600023D9022E069320D0D17E079102F072FC65
:102F7000064602F039FC04F04FFED9F8002018F89C
:102F800034C0D469B2F9220094F81BE00799B2F971
:102F90002440069B0CFB0E0201FB034301FB0B418B
:102FA00007F042FB304604F037FE504608F008F8C0
:102FB0002B687978D8695A8C807E00FB01225A846C
:102FC00009B0BDE8F08F00BF50010020114B70B474
:102FD0001B68DD69EB6943B11A88904202D35C88B3
:102FE000844205D29B68002BF6D1184670BC70470E
:102FF0005E68AC7E821A06EBC2035B7813FB04F0BA
:103000000029F3D016F8323014FB03F30B6070BCC8
:10301000704700BF5001002001230B80704700BFA4
:10302000C06950B103888B4202D843888B4203D2D7
:1030300080680028F6D17047012070472DE9F047DD
:10304000234E3368002B3FDD224D234F2C68D7F8E9
:103050000090C3EB431804EB880808F10C080C340B
:103060004FF0000AA4F10803742218464946FDF700
:103070004CF9221F2063A06344F80CAC6263E46047
:103080007C34A045EED10024A04603E092B1326822
:10309000904514DA17F026FC2B681A59904203EB7E
:1030A000040108F1010804F17C04EFD10431396016
:1030B000BDE8F087086004313960BDE8F087194643
:1030C00004313960BDE8F087024B034F1968EDE722
:1030D00054020020EC4C022050010020F8B5194F9A
:1030E000194B1A4E384640F80C3F06F05BFA34682C
:1030F000C4EB4414A400204600F01CF9144B3860C3
:1031000022461B68002198474FF0FF33736017F089
:10311000EFFB3368002B11DD0024254603E072B17C
:1031200033689D420ADA17F0DDFB3B681A5990427A
:10313000234405F1010504F17C04F0D1F8BD1860C9
:10314000F8BD00BFEC4C0220257701085402002096
:103150006002002009B9084670472DE9F0410E468B
:10316000054602F0CFFC02F0CDFC30460DF04CFBE2
:10317000044605F04BF924B3174FFA697B6B013213
:10318000FA6113F83420013203F8342003EBC4034E
:10319000D3F8048008F10800C5B1104B3246294627
:1031A0001B689847D8F800107A6B0B4D12F8313035
:1031B000012B03D9E86908B10138E861013B02F845
:1031C000313005F023F92046BDE8F081044B32464A
:1031D00029461B689847E5E7B44D02205C020020B1
:1031E0006002002000B9704710B5044602F08AFC66
:1031F00020460DF009FB044605F008F9204610BDF5
:1032000070B5054602F07EFC25B9002405F0FEF8F5
:10321000204670BD02F076FC28460DF0F5FA044613
:1032200005F0F4F8002CF0D0144E1549F269736BD8
:103230000132F26113F83420013203F8342003EB39
:10324000C4032A465D680B6805F108000021984711
:103250002968726B12F83130012B01D9F06930B94D
:10326000013B02F8313005F0D1F8204670BD01383D
:10327000013BF06102F83130F5E700BFB44D0220A8
:1032800060020020024B21F0030183E80300704735
:10329000884A022000B9704770B50D4C054602F00F
:1032A00031FC636BEE003344596848680DF0FEF85A
:1032B000626B6368616A1644013300206360716069
:1032C00002F835006562BDE8704005F09FB800BFA8
:1032D000B44D022028B1034AD36B036003B1586098
:1032E000D0637047B44D0220F8B5054602F00AFCE1
:1032F0002C68B4B10E4E02F005FC736BE7003B4442
:10330000596848680DF0D2F8716B7368726A0F449F
:103310000133002073607A6001F83400746205F0B4
:1033200075F800232B60BDE8F84005F06FB800BFCA
:10333000B44D0220F8B5894E96F828300446002B8B
:103340002FD00334356CF26B24F003040434A5420F
:1033500038BF254662B152F8043C9D42144604D160
:1033600014E054F8043C9D4210D02468002CF8D19D
:10337000F368B46B1C4454F8041C611A0B68002BEE
:1033800065D14B689D426CDD002408E023680BB1D9
:1033900061685960616801B10B60A24253D0204658
:1033A000F8BD6F4B9A685868012186F828100AB951
:1033B00082089A605A253562102720224025196814
:1033C0003764B264356580274FF480724FF400751E
:1033D000B7653266B5664FF480674FF400624FF40C
:1033E0008055A1F114033767B267C6F880504FF4D7
:1033F00000574FF480424FF400450344C6F88870EC
:10340000C6F89020C6F898504FF480374FF4003239
:103410004FF48025C6F8A070C6F8A820C6F8B050B2
:10342000022201254FF40027B16373633261F0601B
:10343000C6F8B8705D60756275600DF037F811F010
:10344000DBFE35637DE72368F3632046F8BD00208B
:1034500014F032FF54F8041C611A0B68002B93D14E
:103460008FE7D6F8B8703D4A581B041DBB420C4488
:1034700072D2D2F8B070BB426CD2D2F8A870BB4204
:1034800066D2D2F8A070BB4260D2D2F898709F4248
:103490005AD9D2F89070BB4254D2D2F88870BB424D
:1034A0004ED2D2F88070BB4248D2926F934243D240
:1034B000376F2A4ABB423DD2976EBB4238D2176E55
:1034C000BB4233D2976DBB422ED2176DBB4229D27D
:1034D000976CBB4224D2126C93420CD2F26873698F
:1034E000521B2B44F260736110B944F8045C56E738
:1034F0000CF0DCFFF9E700223768D1F808E0FB1A8E
:103500003360CB68BEF1000F01D0CEF8043013B1A8
:10351000C3F800E0E2E706EBC202C2F844E0DDE7F0
:103520000122E9E70222E7E70322E5E70422E3E7D5
:103530000522E1E70622DFE70722DDE70822DBE7D5
:103540000922D9E70A22D7E70B22D5E70C22D3E7D5
:103550000D22D1E70E22CFE70F22CDE7B44D022096
:10356000884A0220F8B54A4C94F82830002B3DD008
:10357000D4F8BC30464A3BBBD2F8B43023BBD2F8B7
:10358000AC300BBBD2F8A430F3B9D2F89C30DBB925
:10359000D2F89430C3B9D2F88C30ABB9D2F88430B9
:1035A00093B9D36F83B9536F73B9E36E63B9536E35
:1035B00053B9D36D43B9536D33B9D36C23B9536C3D
:1035C00013B96FF00B00F8BD9B68002BF9D00022F7
:1035D00001E09B6843B159689B689142104684BFE3
:1035E0000A461046002BF4D10C38F8BD294B9A68D6
:1035F0005868012184F828100AB982089A6019686D
:10360000A1635A261022202526622264A564402741
:1036100080264FF480724FF40075A1F114032765E2
:10362000A6652266A5664FF480674FF400664FF4E6
:1036300080524FF4005503442767A667C4F88020E2
:10364000C4F888504FF480474FF400464FF480325E
:103650004FF40035C4F89070C4F89860C4F8A02006
:10366000C4F8A850022201254FF480274FF4002609
:1036700063632261E060C4F8B070C4F8B8605D6054
:10368000656265600CF012FF11F0B6FD25636FE70F
:10369000B44D0220884A022030B1044B5B6B03EB2F
:1036A000C000436858680C38704700BFB44D022012
:1036B000024A936901339361704700BFB44D022001
:1036C000074AD169536B0131D16113F830200132BF
:1036D00003F8302003EBC00358680830704700BF80
:1036E000B44D022009B9002070472DE9F8430F4678
:1036F000064602F007FA38460DF086F8054604F053
:1037000085FE002D65D0002E5AD0334C636B4FEAF6
:10371000C60843445B6859680C398F42A8BF0F46FE
:1037200002F0F0F9636BE26913F835002B490130C0
:1037300003F8350003EBC5000232D0F80490E261D3
:1037400013F83620013203F8362043443A465F68C6
:103750000B6809F1080007F108019847D9F8001033
:10376000636B13F83120012A01D9E06970BB013A7B
:1037700003F83120396813F83120012A02D9E069B1
:10378000154F00BB013A03F8312002F0BBF9636B1F
:1037900043440027596848680CF088FE606B6268F3
:1037A000616A00EB080301326260596000F836700C
:1037B000666204F02BFE04F029FE2846BDE8F8837B
:1037C0002846BDE8F8830138F861DBE70138E0619D
:1037D000CDE70020BDE8F883B44D02205C02002054
:1037E000F8B5584C02F08EF994F82830002B57D0D9
:1037F000D4F8BC30534A9BBBD2F8B43083BBD2F868
:10380000AC306BBBD2F8A43053BBD2F89C303BBB7E
:10381000D2F8943023BBD2F88C300BBBD2F8843072
:10382000F3B9D36FE3B9536FD3B9E36EC3B9536E32
:10383000B3B9D36DA3B9536D93B9D36C83B9536C3A
:1038400073B96FF00B034049DA1781FB0313C2EB26
:103850006313246A04FB03F404F0D8FD2046F8BD8A
:103860009B68002BF5D0002201E09B6843B15968AA
:103870009B689142104684BF0A461046002BF4D143
:103880000C38B0F5800F0346DDD8226A2E4B02FBC0
:1038900000F0A3FB00235C0904F0B8FD2046F8BD4E
:1038A0002A4B9A685868012184F828100AB98208BE
:1038B0009A601968A1635A26102220252662226484
:1038C000A564402780264FF480724FF40075A1F163
:1038D00014032765A6652266A5664FF480674FF43A
:1038E00000664FF480524FF4005503442767A667E3
:1038F000C4F88020C4F888504FF480474FF4004645
:103900004FF480324FF40035C4F89070C4F89860DA
:10391000C4F8A020C4F8A850022201254FF4802743
:103920004FF4002663632261E060C4F8B070C4F80D
:10393000B8605D60656265600CF0B8FD11F05CFC1C
:10394000256355E7B44D02201F85EB51884A0220BC
:10395000024A9369013B9361704700BFB44D022056
:1039600030B403680A4A53F8085C0446506B10F8F8
:103970003530012B03D9D16909B10139D161013B3E
:1039800000F8353000221046226030BC704700BF7E
:10399000B44D0220034B5B6B03EBC0004068083062
:1039A000704700BFB44D0220A0B32DE9F04104469A
:1039B00082B008467ABB15462046FFF781FE02AE6C
:1039C000078846F8080DD0F804803046FFF7C8FF96
:1039D000791C40468900FFF785FE804660B3FFF7FB
:1039E0006FFE02AB43F8040D40F827501846FFF76E
:1039F000B7FF2046FFF764FE0288009003460132BD
:103A0000C0F8048030461A80FFF7AAFF002002B0F9
:103A1000BDE8F08170471146FFF79CFB0546002882
:103A2000CAD12046FFF74CFE02AB43F8080D1846FA
:103A3000FFF796FF0120EAE72846FFF72BFC01205D
:103A4000E5E700BF0820FFF7DBBB00BF00B9704708
:103A500030B583B00546FFF733FE0090406838B9B3
:103A60006846FFF77DFF2846FFF714FC03B030BD22
:103A7000FFF726FE009B01901B885BB1002400E04D
:103A8000019800EB8400FFF72FFC009B1B8801349A
:103A9000A342F5DC01A8FFF763FF00980430FFF7AD
:103AA00023FC009B00221A80DAE700BF30B583B008
:103AB0000C46FFF705FE03880090A34201D9456834
:103AC00025B96846FFF74CFF03B030BD02F01AF885
:103AD0002846FFF7F5FDA500034628440193FFF7AC
:103AE00003FC009B1A88013A92B2A2421A8007DDB9
:103AF0000198121B291D014492002844FCF705FC83
:103B000001A8FFF72DFF04F081FC6846FFF728FFAE
:103B100003B030BD10B582B018B90446204602B0DB
:103B200010BDFFF7CDFD02AB048843F8040D184625
:103B3000FFF716FF204602B010BD00BF10B582B0DF
:103B400018B90446204602B010BD0C46FFF7B8FD78
:103B5000038800909C4206D300246846FFF700FFCC
:103B6000204602B010BD406808B90446F5E7FFF7EB
:103B7000A7FD02AB50F8244043F8040D1846FFF7A8
:103B8000EFFEEAE710B582B008B30C46FFF798FDE8
:103B9000038800909C4206D300246846FFF7E0FEAD
:103BA000204602B010BD40680028F5D0FFF788FD20
:103BB00002AB50F8244043F8040D1846FFF7D0FE3E
:103BC000002CE9D02046FFF77BFD0446E5E70446DC
:103BD000204602B010BD00BFB0F1004F2DE9F0410A
:103BE00075D000287EDB00240C1BE4B200210AB152
:103BF000013CE4B284B33F4F99B3651E9442DFF8B1
:103C0000F8E04FF0310CEDB219D057F8256090FB79
:103C1000F6F1C9B20A291FD806FB11000DB901310E
:103C2000C9B20A2901F1300149D01C68661C1E6026
:103C300021708DB12C46651E9442EDB2E5D1196814
:103C40004E1C1E609EF800600E7057F8256090FBB9
:103C5000F6F1C9B20A29DFD91B6800221A70BDE843
:103C6000F081651E9442DFF890C04FF03108EDB24C
:103C700017D057F8256090FBF6F1C9B20A2901F177
:103C8000300EE9D806FB1100196811D04C1C1C60DD
:103C900081F800E0002DDFD02C46651E9442EDB285
:103CA000E7D119684E1C1E609CF800600E70E0E7BA
:103CB0004E1C25461E602C4681F80080EDE71968F1
:103CC00025464E1C1E602C4681F800C0B3E71D68D7
:103CD0004C1E681C2D211860E4B229706FF0004062
:103CE000012184E71D682D266C1C1C6040420124C4
:103CF0002E7079E7F08F0208784E022010B5044646
:103D000001F000FF044804EB840400EB8404247AEF
:103D100004F07CFB204610BDE84B02202DE9F04763
:103D20000E4682B08C008146414F01F0EBFE3046DA
:103D300001F09CFDA31907EB83033A68D3F80480D4
:103D4000824672B3BAF1000F36D1A51907EB85058B
:103D500001236869C5F804902B72002863D1B9F17A
:103D6000000F18D0344407EB840499E80300E3689B
:103D7000D9F8087022690125591AD21B00953346DB
:103D800003F08CFE6061304601F070FD002838D1F0
:103D9000237A002B3ED104F039FB404602B0BDE847
:103DA000F0873846234B40F82C3F01233B6005F059
:103DB000F9FBBAF1000FC8D0504603F001FF0546E9
:103DC000002003F01DFF00F0A5F800221146D9F8ED
:103DD000000000F0A3FDD9F8003034445A88198857
:103DE00007EB8404504603F063FF28460125C4F81E
:103DF0000490257203F0E4FE304601F037FD002800
:103E0000C6D0294603F064FF04F000FB404602B030
:103E1000BDE8F087606903F00DFE04F0F7FA404654
:103E200002B0BDE8F08703F07FFAC5F814A096E76A
:103E3000E84B0220F57601082DE9F04114460646CC
:103E4000884601F05FFE204601F010FDE8B9A700AA
:103E50001B4D3B1905EB8303DA68B24206D11B699F
:103E6000434503D1BDE8F04104F0D0BA3B1905EB5E
:103E700083035869D0B93C4405EB8404E660C4F878
:103E80001080BDE8F04104F0C1BA0D4B04EB84048E
:103E900003EB840463689A685968C2EB0802711ADC
:103EA00003F0F6FEBDE8F04104F0B0BA5B689A6832
:103EB0005968C2EB0802711A03F066FADBE700BF2B
:103EC000E84B0220C3B2CAB29A1A92B230B415B209
:103ED000002DBCBF524215B2C0F30723C1F3072225
:103EE0009B1A9BB2090C1AB2C1EB1041002A89B28D
:103EF0000CB2BCBF5B421AB2002CBCBF49420CB230
:103F000002FB02F205FB0520A1B201FB010030BC5F
:103F1000704700BF2DE9F041002182B0084601F052
:103F200063FD01F0EFFD042007F04AF8174B1B6911
:103F3000DD6C1C6DA5F57F57A4F57F5605F57F5503
:103F400004F57F5480463F3F3F353F3E3F3468464F
:103F5000ADF80070ADF80450ADF80260ADF8064061
:103F60000BF070FC48B123462A463146384606F02D
:103F70005BFB0BF0FBFA0028F5D1404607F020F878
:103F800004F044FA02B0BDE8F08100BF4001002017
:103F90002DE9F04182B016461C4607460D4601F059
:103FA000B1FD042007F00CF8134B1B69DA6C1B6D94
:103FB0008046174416441D441C446846ADF8007002
:103FC000ADF80460ADF80250ADF806400BF03AFCD5
:103FD00048B1234632462946384606F025FB0BF009
:103FE000C5FA0028F5D1404606F0EAFF04F00EFAC3
:103FF00002B0BDE8F08100BF400100202DE9F0478C
:10400000044682B00D461646002B38D09A460096DC
:1040100026680B9B0A9A51462046B047074618B9B6
:10402000384602B0BDE8F08709F0A0F9618A804601
:10403000384608F099FB38460BF06EF8013D4046D3
:104040000BF06AF8002DC8BF4FF0000904DC1AE03D
:104050000BF062F8013D16D054F81C6FCDF80090BB
:10406000002320461A464146B04706460028EFD1B5
:10407000384608F0BBFE304602B0BDE8F08709F0D4
:1040800083F98246C3E740461D210AF0CBFDBAF111
:10409000FF3FC5D001F036FD09F0FCF960B9BA4523
:1040A00002D038460AF0DCFE04F0B0F9384602B01F
:1040B000BDE8F0870028F4D0FFF76CFC80698742E8
:1040C000F8D1F1E7012B12DCF8B506461C201746A3
:1040D0000C461D46FFF72EF9B8B154B10461002318
:1040E000836085618782C66003604360F8BD0020FD
:1040F0007047074B53F825200AB9F0E71A461368B2
:10410000002BFBD113690361E9E70020F8BD00BF74
:104110008C4E0220012B3BDC2DE9F84381461C200C
:1041200090460F461E46FFF705F9054600287FD04A
:10413000414A002F31D00023DFF804E152F8264035
:1041400003609EF8001007618E428661A0F814801B
:10415000C0F80C904360836002DB731C8EF8003063
:10416000002C5DD021464C68002CFBD1D9F8000012
:10417000CB681B6883422CDD09680029F8D148B957
:104180002E4B16361A68284642F82650BDE8F883AA
:10419000002070472846BDE8F88352F82610002911
:1041A00030D0084600E018460368002BFBD1DFF84A
:1041B00090E000692B6028619EF80000AE618642A5
:1041C000A5F81480C5F80C906B60AB60CBDB0C4697
:1041D000C3E70AD04B6843B31D606B608D4214BFC8
:1041E0000B4600234D602B60C9E7B8F1010FF1D1F8
:1041F00004E0D9680C6884421946EBDB0B68002B9D
:10420000F7D1E7E7DFF838E001609EF8003086611B
:104210009E42A0F81480C0F80C9041608160D6DA0C
:1042200042F82650D9F80000A9E742F82650D5E711
:104230000020BDE8F88300BF8C4E02205001002012
:10424000854E0220FFF746B800283CD070B4846940
:10425000012C03DD0123184670BC70471E4B1F4D17
:104260001A789442A4BF621C1A7055F824300BB916
:104270002FE013465A68002AFBD1C268116802E099
:104280001B68002BE6D0DA6812689142F8DB0DD08B
:104290005A68DAB110604260984214BF1A46002290
:1042A00058600023026070BC18467047828A012A59
:1042B000EED104E0D3681E68B1421346E8DC1A6808
:1042C000002AF7D1E4E701231846704745F8240097
:1042D000E2E745F82400BEE7854E02208C4E02201E
:1042E00000284DD02DE9F041DFF89CE0254F9EF8E5
:1042F0000060BC4602E02846002D27D0846905688E
:10430000012CF8DCB44257F82430A4BF661CF6B286
:104310000BB932E013465A68002AFBD1C268116813
:1043200002E01B68002BE6D0DA6812688A42F8DCEB
:1043300010D05A68A2B110604260984214BF1A4669
:104340000022586002602846002DD7D18EF8006008
:10435000BDE8F081828A012A0BD05A68002AEAD18E
:1043600047F82400E9E7D368D3F80080884513466E
:10437000DFDB1A68002AF6D1DBE74CF82400BAE745
:10438000704700BF8C4E0220854E02200F4A816983
:1043900052F8213098420AD042680AB1036813608B
:1043A000036803B15A6000230360436070470368E9
:1043B00042F821302BB100225A604268002AEED127
:1043C000F0E74268002AEAD1EDE700BF8C4E0220F8
:1043D0000020704701280EDC084B53F8200058B12C
:1043E000C3681B681BB908E0C3681B6823B1006879
:1043F0000028F9D170470020704770478C4E02208A
:10440000F0B583B0F8B104460C2016460F46FEF70F
:10441000F7FE054610B9284603B0F0BD01F072FB67
:104420002846FFF74DF9034602A8094A40F8043D23
:104430005C601F815E811A60FFF792FA03F0E6FF6D
:10444000284603B0F0BD0546284603B0F0BD00BFC6
:1044500074BB020800B970472DE9F04182B01E46D6
:1044600015460C460746FFF72BF902AB026843F8E6
:10447000040D1846D2F80080FFF772FA33462A4638
:1044800021463846C04702B0BDE8F08100B9704708
:1044900030B583B00446FFF713F902AB026843F866
:1044A000040D18465568FFF75BFA2046A84703B08D
:1044B00030BD00BF00B9704730B583B00446FFF788
:1044C000FFF802AB026843F8040D18469568FFF741
:1044D00047FA2046A84703B030BD00BF2DE9F84396
:1044E000074616F001FA074416F0FEF93E1A002EB0
:1044F000DFF86090DFF8608022DD01F031F8D9F854
:1045000000309E42A8BF1E4601F0FCFAD8F80040D9
:10451000FFF7CEF8B4B1254603F078FF013DFBD19B
:10452000304616F0DDF901F0EDFA013CFBD1FFF762
:104530000FFA03F06BFF16F0D7F93E1A002EDCDC01
:10454000BDE8F883304616F0CBF9FFF701FA03F027
:104550005DFFF0E754010020F04C022010B584B05C
:1045600004AB01AC43F8104DFFF736FB204600F0DA
:1045700015F904B010BD00BF30B52DED028BB5EEBE
:10458000400AF1EE10FA83B004465AD1DFED7F8A7B
:10459000F7EE007A7E4B53F8243000EE103AB8EE76
:1045A000408AB6EE007A68EE277AF5EEC07AF1EE30
:1045B00010FA00F1848077EE877A17EE900AFCF704
:1045C00005F841EC100B1FF006FA51EC100BFCF74C
:1045D00010F807EE900AFDEEE77A17EE900A01F068
:1045E000E1FA28EE280A002C0CBF2346631C001BAE
:1045F000B5EEC00A0028ACBF1D181D1CF1EE10FA64
:10460000EDB2F6EE007A6DD470EE277A17EE900ACE
:10461000FBF7DCFF41EC100B1FF0DDF951EC100B48
:10462000FBF7E7FF07EE900AFDEEE77A224617EE6A
:10463000900A294603B0BDEC028BBDE83040FFF77D
:104640008DBFB5EEC00AF1EE10FAF0EE408A09DB3C
:10465000F7EE007AB4EEE70AF1EE10FA53D4F0EE7A
:10466000687A97E7FFEE007AB4EEE70AF1EE10FA07
:10467000F5DD9FED487AF0EEC07A77EE877AF5EEB9
:10468000407AF1EE10FA71D00023B2EE047A67EEB0
:10469000877A0133FCEEE76ADBB216EE902A002A35
:1046A000F5D0A34262DDFEEE007AF4EEE78AF1EE89
:1046B00010FA60D8002C5FD1FFEE008ACFE777EECA
:1046C000C77A17EE900AFBF781FF41EC100B1FF041
:1046D0006EF951EC100BFBF78CFF07EE900AFDEE24
:1046E000E77A7AE770EE677A17EE900AFBF76EFFCB
:1046F00041EC100B1FF05BF951EC100BFBF779FF4D
:1047000007EE900A90E79FED237AF0EEC07A77EEFD
:10471000877AF5EE407AF1EE10FA22D00023B2EE5D
:10472000047A67EE877A0133FCEEE76ADBB216EEB5
:10473000902A002AF5D0A34213DDF6EE007AF4EEBB
:10474000E78AF1EE10FA1ADBB4B9F7EE008A104BE3
:10475000DFED117A1B68019307EE103AB8EE478A35
:104760003BE7F7EE007A78EEA77A13E7F7EE007AE8
:1047700078EEE77A0EE72CB1F7EE007A0AE7002C24
:104780007FF404AFDFED018AE1E700BF0000000025
:10479000F08F02085F7089300000000008B100F05F
:1047A00001B870472DE9F04F474E83B0044601F041
:1047B000A9F901F071F833680746B3F9229001F0C6
:1047C000D7F83268938C1FFA80FACAEB03031BB246
:1047D0009384217800294DD0BFB2B04647F6FF71CF
:1047E000204604F039FD01468346204604F0F2FCE1
:1047F00031688B8D03F00303012B5AD0022B5CD060
:1048000085B24FF0000E4A8CB1F92430ADF8023079
:10481000CEEB020292B210B2013B05F1FF3E96448C
:1048200048843B446A465946ADF800002046ADF83E
:104830000630ADF804E004F025F83368BDF8022036
:104840009A845946204603F0B1FC225C0A2A04EB04
:1048500000031BD00D2A19D0BDF80000D8F80020A5
:1048600005445584197819B159785C1C0029B5D1D3
:10487000B2F92430918D9A4421F00303A2F824A0C8
:10488000938503F0C3FD03B0BDE8F08F3268918DCE
:1048900001F00301013901298ABF118CA2F822908D
:1048A000518419780A29DED1918C39449184197880
:1048B000D9E71FFA80FE7546A5E700EBD072C2F378
:1048C0004F0E85B29FE700BF5001002020B3F0B526
:1048D0000C4683B00546164601F014F9D4B12046C3
:1048E0000AF00AFC074638B168463A46214604F009
:1048F0002DFD68460AF000FC3246214647F6FF735C
:10490000284604F019F838460AF0F6FB03F07EFD5D
:1049100003B0F0BD2746EFE7704700BF2DE9F04F29
:10492000DFF8F49089B0044690460F4601F0EAF8AB
:10493000D9F800302088DA6C1D6D63881744A844CC
:10494000421E013B3A44434406A8ADF81870ADF846
:104950001A80ADF81C20ADF81E300AF073FF002855
:104960004ED0DFF8B8A0CB461AE040F0020003F0CA
:104970005FF9216921B3D4F80CE0A6686388228826
:104980008DE840400120039002900E683846414671
:10499000B047284603F04CF90AF0E8FD00282FD074
:1049A0000020E66803F044F9054616B13379002B80
:1049B000DBD125F0020003F03BF921690029DAD1AF
:1049C000D9F80020DAF80030527CE0682146984798
:1049D000E188D0B163882288A6680590A0880291FA
:1049E000012103900191009138464146049605F05B
:1049F0000BFC284603F01CF90AF0B8FD0028CFD1C3
:104A000003F004FD09B0BDE8F08F012904BFDBF815
:104A10000030986BDEE700BF50010020400100200D
:104A200070B582B00A460146684604F0ABFD01F05D
:104A300069F8284BBDF800401B68BDF80410B3F8B6
:104A40004C60B3F85050BDF80220BDF80630344435
:104A500031442A442B446846ADF80040ADF80410B8
:104A6000ADF80220ADF806300AF0ECFE68B3BDF9EF
:104A70000040BDF904309C420EDC2046BDF9021016
:104A800005F072FD2046BDF9061005F06DFDBDF97B
:104A9000043002349C42F0DDBDF90240BDF906301D
:104AA0009C420EDC2146BDF9000005F05DFD21466B
:104AB000BDF9040005F058FDBDF9063002349C42F2
:104AC000F0DD0AF053FD0028D1D103F09FFC02B0C5
:104AD00070BD00BF500100202DE9F04F91B081461C
:104AE0001E460F46904601F00DF8654B1C68E56CBC
:104AF000246DA019E11905EB090305EB0802044632
:104B000008900EA8029301920791ADF83830ADF8E5
:104B10003C20ADF83A10ADF83E400AF093FE002874
:104B200000F09180019B029A9DF868409DF86C709E
:104B3000C2EB030B1A9AC2F307201B9AC2F3072693
:104B40001A9AC2F307411B9A0BEBDB735B10C2F39B
:104B5000074E1A9A0BFB04353C1B120E06940BFBF6
:104B60000034301A03900BFB01300BFB02330D9322
:104B70001B9B0A95C1EB0E01C2EB13630B940C90C7
:104B8000049105935E4600F065FE1A9B1B9A0990FE
:104B900093426AD0002E52D0029D019A95425CDC6D
:104BA0000AAF024697E880074FF0010B06E00BF1D1
:104BB000010B019B0135AB4222462FDB9AFBF6F33A
:104BC00099FBF6F41B0697FBF6F143EA044398FBC6
:104BD000F6F441EA042405991C43039B8A44049992
:104BE0009844029B89440699AB4210460F44E0DA90
:104BF0009442DCD006F0B2F9BBF1010FCBEB05001B
:104C0000089B079905F1FF3222D005F00DFD019BAD
:104C10000135AB424FF0010B2246CFDA204606F0B9
:104C20009DF9BBF1010F1AD0019A089B0799CBEBB4
:104C30000200013005F0F8FC099806F08FF90AF03F
:104C400095FC00289FD103F0E1FB11B0BDE8F08F87
:104C50001A46681E05F0BEFCABE706F07FF9089A1D
:104C60000799019805F0B6FCE6E7184606F076F9D4
:104C7000089B019A0799029805F0D6FCDCE700BF73
:104C8000500100202DE9F04F91B081461E460F469D
:104C9000904600F037FF644B1C68E56C246DA0194A
:104CA000E11905EB090305EB0802044601900EA883
:104CB000079308920291ADF83830ADF83C20ADF87A
:104CC0003A10ADF83E400AF0BDFD002800F091809A
:104CD000019B029A9DF868409DF86C70C2EB030B33
:104CE0001A9AC2F307201B9AC2F307261A9AC2F334
:104CF00007411B9A0BEBDB735B10C2F3074E1A9A4A
:104D00000BFB04353C1B120E06940BFB0034301ACF
:104D100003900BFB01300BFB02330D931B9B0A9599
:104D2000C1EB0E01C2EB13630B940C90049105933D
:104D30005E4600F08FFD1A9B1B9A0990934269D042
:104D4000002E52D0029D019A95425BDC0AAF0246CA
:104D500097E880074FF0010B06E00BF1010B019B78
:104D60000135AB4222462FDB9AFBF6F399FBF6F4B2
:104D70001B0697FBF6F143EA044398FBF6F441EA7D
:104D8000042405991C43039B8A4404999844029B7C
:104D900089440699AB4210460F44E0DA9442DCD0D5
:104DA00006F0DCF8BBF1010FCBEB050105F1FF3399
:104DB000089A079822D005F037FC019B0135AB42D9
:104DC0004FF0010B2246CFDA204606F0C7F8BBF1C0
:104DD000010F19D0019B089A0798CBEB0301013111
:104DE00005F022FC099806F0B9F80AF0BFFB00288C
:104DF0009FD103F00BFB11B0BDE8F08F691E05F0E9
:104E000089FBACE706F0AAF8089A0199079805F023
:104E100081FBE7E7184606F0A1F8019B089A029982
:104E2000079805F001FCDDE7500100202DE9F04F67
:104E30008FB01646189C0194199C03941A9C0A94EE
:104E40000B901C46069100F05DFEA44B1B680020F1
:104E5000DF6C1D6D0AF0F6FC002800F084800A9AD1
:104E6000069B002A07EB0602099205EB040203F1F8
:104E7000004305920B9A03F1FF3302EB43030D93BA
:104E800014BF6FF0010302230293019B002B66D035
:104E9000039B002B63D0069B002B60DD019B5A1CFB
:104EA00000F0FF80012B039B00F00A81012B14BF4F
:104EB00005210421894B1B685B69002B00F0DD8014
:104EC0000998B3F90220B3F90050069C0792B3F990
:104ED00006200892013D0246A842B3F9043022445C
:104EE00002F1FF32BABF2D1A25EAE57500259A4274
:104EF000C4BF02469B1A0A9ACCBF01332346002A3C
:104F000000F0C3800D9EAB4229DD099A013902F100
:104F1000FF3800224544049198449146012747F602
:104F2000FF7BB6F90040029B5C451E4400F0838085
:104F3000049B002F39D0042B00F2AB80DFE803F094
:104F40002820182D0300059BE218019B013500273E
:104F500003FB02F2039BB2FBF3F24545E1D10AF0F9
:104F600005FB002891D10FB0BDE8F04F03F04EBA19
:104F7000059B01351C440027039BB4FBF3F2ECE7CF
:104F8000059B01351C1B0027039BB4FBF3F2E4E7F0
:104F9000059B01351A1B0027DFE7059B1C44019B7D
:104FA000013503FB04F20027D7E7042B76D8DFE8AE
:104FB00003F03F3933150300059B1C44019B03FBA1
:104FC00004F4039BB4FBF3F4079991420EDD8C4289
:104FD0000CDA013509F101092246BEE7059B079964
:104FE0001C44019B914203FB04F4F0DC08999142BC
:104FF0002EDA8C42EDDCA31803EBD3735B10194659
:1050000028460C9305F0E6FA0C9B01351A46284613
:10501000214605F0DFFADDE7059B1C44039BB4FB4A
:10502000F3F4D1E7059B1C1B039BB4FBF3F4CBE724
:10503000059B1C1BC8E7B9F1000F04D1002F36D027
:105040000135012789E701354FF00009012784E781
:1050500004EB020A0AEBDA7A4FEA6A0A94425346F0
:10506000CDDB114628465246013505F0B3FA5146CC
:105070002846224605F0AEFAACE70A9A2ABB4FF062
:10508000FF3307930893069B15460B9A02EB4506E0
:1050900039E7059B0135E21800275EE7059B1C44B4
:1050A00092E7039B012B14BF0221012102E7114665
:1050B00028460C92013505F057FA01270C9A4CE767
:1050C000012B14BF03210021F4E64FF0FF321D46EF
:1050D000079208920D9E069B17E700BF5001002023
:1050E000F0B5144F83B006460D46144600F00AFD95
:1050F0003B68196DDA6C0E4433B2154414446846AB
:10510000ADF80050ADF80440ADF80230ADF806300F
:105110000AF098FB50B13B685B6E22461B68314633
:10512000284698470AF022FA0028F4D103F06EF9D5
:1051300003B0F0BD500100202DE9F04FB84D8DB007
:105140008046894617469A4600F0DCFC2C68002011
:10515000E66C246D0AF076FB002800F0268104EB53
:105160000A03A144C3EB090B06EB0802F119CBF1CA
:105170000008C1EB020A18EA2B0838BFD8464AEAF1
:105180000B07CDF814B004930391A64E934604E0A8
:105190000AF0ECF9002800F008812B681C7E00233F
:1051A000012C079300F03281002FF1D0BAF1000FEB
:1051B00004F1FF34C0F2258150460222059933EAFA
:1051C000210328BF1346404580F2F48043F00403D6
:1051D0000246DBB24046411001EB822292FBF0F224
:1051E000911106EB4100C2F3830CCCF1100EB0F923
:1051F0002400BEF1100F0EFB00F006D0894A02EB2E
:105200004101B1F926100CFB010010F1080148BF63
:1052100000F117010911580748BFC1F58061DA078D
:1052200048BFC1F500619B0748BFC1F5805101F53A
:105230000062C2F30B02B2F5006FC6BFA2F50062B6
:1052400001200020B2F5806FC8BFC2F5006201F5F1
:105250008063911102F03F02C2F1400292B236F82F
:1052600011E0402A02FB0EFE08D0102906D00131C1
:10527000C2F1400236F8111002FB01EE0EF1200ED1
:105280004FEA9E1E002840F097807046C3F30B0340
:10529000B3F5006FC6BFA3F5006301220022B3F58A
:1052A000806FC8BFC3F5006303F03F0E9911CEF1C4
:1052B000400E1FFA8EFE36F81130BEF1400F00FB93
:1052C00004F00EFB03F308D0102906D00131CEF113
:1052D000400E36F811100EFB013320339B0902B14A
:1052E0005B42002803FB04F469DB00F50070002C2E
:1052F0004FEAA0206ADB04F5007400284FEAA424DA
:105300006BDD00F1010C002C4FEA6C0C4FEA6000E1
:105310006EDD04F1010E4FEA6E0E64101FFA8CFC74
:105320001FFA8BF21FFA8EF302EB0C0EADF820E0A1
:10533000BDF80CE080B2121AF444C0EB0E00BDF8C8
:1053400010E0ADF82420A4B21FFA89F1CA18091B95
:10535000C4EB0E049E440023ADF82220ADF82610C5
:105360001A46ADF82800042108A8ADF82CC0ADF805
:105370002A40ADF82EE0FCF77BFB2B685B7E002B10
:105380007FF406AF49465846FCF7EEFA244B1B68FB
:105390005B7E002B7FF4FCAE04990398FCF7E4FAE3
:1053A0000AF0E4F800287FF4F8AE03F02FF80DB00F
:1053B000BDE8F08F42460EE7CEF1000066E7C0F58B
:1053C00000708012002CC0F1000094DAC4F5007463
:1053D000A4120028C4F1000493DC431E00EBD07C2F
:1053E00003EBD373002C4FEA63004FEA6C0C90DCA4
:1053F000631E04EBD47E03EBD3735C104FEA6E0E96
:105400008CE7CAF1000003220123D7E607AB009323
:10541000039A049B49465846FCF7A2F8B8E600BF39
:105420005001002078A5020870B5134E82B00546E1
:105430000C4600F067FB3368DA6C1B6D15441C44A6
:105440002AB223B26846ADF80420ADF80020ADF8CA
:105450000630ADF802300AF0F5F948B133685B6EFA
:1054600021465B68284698470AF080F80028F5D165
:1054700002F0CCFF02B070BD500100202DE9F047D2
:1054800082B0044689469246984600F03BFB1E4B8C
:105490001F683E7EFD6C3F6D013EB6B22C44B944A0
:1054A0005544B844A11B7219C6EB0903684646442B
:1054B000ADF80010ADF80420ADF80230ADF806608C
:1054C0000AF0C0F9D8B109F1010708F1FF362A4600
:1054D0004946204605F01EF82A464146204605F07A
:1054E00019F832463946204605F074F832463946F6
:1054F000284605F06FF80AF039F80028E7D102F0E5
:1055000085FF02B0BDE8F0875001002070B582B081
:10551000064614460D4600F0F5FA104B1A68D36C97
:10552000126D1E4433B2154414446846ADF802505F
:10553000ADF80640ADF80030ADF804300AF082F95D
:1055400040B122462946304605F044F80AF00EF8EC
:105550000028F6D102F05AFF02B070BD50010020C1
:105560002DE9F041124F134EDFF84C8000253C68C6
:105570001CB1A047041C18BF012407F06BFD336861
:10558000002818BF01244BB1984738B1D8F8003033
:1055900013B1012498473CB10125E8E7D8F8003061
:1055A000002BF7D1002CF7D12846BDE8F08100BFD1
:1055B000B04E0220B44E0220AC4E0220F0B583B0B3
:1055C000074616461C460D4600F09CFA104B1B6819
:1055D000DA6C1B6D174416441D441C446846ADF834
:1055E0000070ADF80460ADF80250ADF806400AF066
:1055F00029F948B1234632462946384605F014F8C1
:1056000009F0B4FF0028F5D102F000FF03B0F0BDAF
:1056100050010020F0B583B0B0F90070B0F902601D
:10562000B0F90450B0F9064000F06CFA104B1B685A
:10563000DA6C1B6D174415441E441C446846ADF8D3
:105640000070ADF80450ADF80260ADF806400AF005
:10565000F9F848B123462A463146384604F0E4FFBB
:1056600009F084FF0028F5D102F0D0FE03B0F0BDB0
:1056700050010020002850D0C388013B10B5848819
:1056800080681F2B47D8DFE803F0162346314646D3
:10569000463C4646464646464640464646464646BA
:1056A00046464646464646464610A31002FB0311B0
:1056B00050F8210010BD02FB04F200EBD104C843F6
:1056C000A35C00F0070023FA00F000F0010010BD19
:1056D00002FB04F200EB91046FEA4100A35C00F0CE
:1056E000060023FA00F000F0030010BD02FB04F2F4
:1056F00000EB5104CB07A05C4CBF00F00F00000989
:1057000010BD02FB0404605C10BD631002FB0311BA
:1057100030F8110010BD002010BD7047013800B5F1
:105720001F2853D8DFE800F018275237525252444E
:10573000525252525252524A525252525252525251
:1057400052525252525252100198891000FB0133AA
:1057500052F823005DF804FB019802EBD30200FB32
:1057600001F0DB43105C03F0070320FA03F303F0BE
:1057700001005DF804FB019802EB930200FB01F0CD
:105780006FEA4303105C03F0060320FA03F303F00F
:1057900003005DF804FB019802EB530200FB01F0EB
:1057A000DB07105C4CBF00F00F0000095DF804FB44
:1057B000019800FB0122D05C5DF804FB01984910C0
:1057C00000FB013332F813005DF804FB00205DF8A4
:1057D00004FB00BF034B53F82000C36808219B6AF9
:1057E000184700BF8C4E022010B500F08BF904F072
:1057F0005BFF05F031F9044602F008FE204610BDBB
:1058000010B5044600F07EF9054B1B68DB690021EA
:105810005B6820469847044602F0F8FD204610BD1C
:105820005001002038B504460D4600F06BF9064BD8
:105830001B68DB6929465B6820469847044602F0EE
:10584000E5FD204638BD00BF5001002008B107F03B
:1058500065BD704710B500F055F904F02DFF05F057
:10586000FBF8044602F0D2FD204610BD01289ABF85
:10587000024B53F820000020704700BF644B022009
:1058800010B500F03FF9034B1B681C7C02F0BEFD15
:10589000204610BD5001002010B500F033F9044B34
:1058A0001B68DB695C7E02F0B1FD204610BD00BFC5
:1058B0005001002010B500F025F9054B1B68DB698D
:1058C0001C7EDB7E14FB03F402F0A0FD204610BD1D
:1058D0005001002070B504460E46154600F012F93E
:1058E00020462A46314604F08DFF044610B10023BD
:1058F00033602B6002F08AFD204670BD10B500F0C9
:1059000001F9034B1B689C7E02F080FD204610BD10
:105910005001002038B505460C4600F0F3F8064A61
:10592000064BB2F90020B3F900302A602360BDE8CD
:10593000384002F06BBD00BF7A4E02207C4E022040
:1059400010B5044603F0B2FC01462046BDE8104005
:1059500003F040BC14F0C8BF044834233521612251
:10596000017002718370C370704700BF380100205E
:1059700010B500F0C7F80F4B1A68938D03F00C03B5
:10598000082B08D00C2B06D0042B0BD0002402F0DF
:105990003DFD204610BDD3691C7E640802F036FD33
:1059A000204610BDD3691C7E013C02F02FFD20462D
:1059B00010BD00BF50010020407E7047027EC07EB7
:1059C00002FB00F0704700BF024B53F820301B6908
:1059D000186870478C4E0220024B53F820301B6928
:1059E000586870478C4E022038B505460C4600F0CA
:1059F00089F8044B1B685D849C8402F007FD00203D
:105A000038BD00BF5001002090B583B000AF344ACC
:105A1000334B1B6823F001031360324B01221A60E1
:105A200000BF304B1B68002BFBD12F4B2F4A1A6055
:105A30002D4B1B682E4A934200D0FEE702F0E2FE97
:105A40002C4B2E221A7014F051FF2B4811F0E4FA5F
:105A500014F0FAF8786004F04FFF0346002B0CBFF7
:105A600001230023DCB204F08DFF0346002B0CBFA2
:105A700001230023DBB22343DBB2002B09D004F067
:105A800051FF044604F094FF03461946204605F0F2
:105A900091FA0021002002F037F908F0A5FAFDF78D
:105AA000CDFA164B1B68002B12D00DE0134B1B6870
:105AB0001B68002B03D0114B1B681B6898470F4BCA
:105AC0001B685B680D4A13600C4B1B68002BEDD103
:105AD0000B4B01221A707B6818460C37BD4690BDEF
